:020000040800F2
:10000000F81800202903000831030008D90200086D
:10001000350300083703000839030008000000001A
:100020000000000000000000000000003B0300088A
:100030003D030008000000005B02000809240008DE
:100040004303000843030008430300084303000878
:100050004303000843030008ED0900083B0A0008B9
:100060004D0A00085F0A0008710A000843030008EF
:100070004303000843030008430300084303000848
:100080004303000843030008430300084303000838
:10009000430300084303000843030008830A0008E1
:1000A0004303000843030008430300084303000818
:1000B0004303000843030008430300084303000808
:1000C00043030008430300084303000843030008F8
:1000D0004303000841290008592900084303000888
:1000E000FF09000843030008430300084303000816
:1000F00043030008430300084303000843030008C8
:1001000043030008430300084303000843030008B7
:1001100043030008430300084303000843030008A7
:100120004303000843030008430300084303000897
:1001300000F002F800F063F80AA090E8000C824496
:100140008344AAF10107DA4501D100F058F8AFF273
:10015000090EBAE80F0013F0010F18BFFB1A43F0A5
:100160000103184718060100380601000A444FF041
:10017000000C10F8013B13F0070408BF10F8014B06
:100180001D1108BF10F8015B641E05D010F8016B4B
:10019000641E01F8016BF9D113F0080F1EBF10F8AF
:1001A000014BAD1C0C1B09D16D1E58BF01F801CBD2
:1001B000FAD505E014F8016B01F8016B6D1EF9D555
:1001C0009142D6D37047000000230024002500266A
:1001D000103A28BF78C1FBD8520728BF30C148BFAA
:1001E0000B6070471FB500F07DFA0400002000216D
:1001F0000EF066FF401C60601FBD10B510BD00F022
:100200009EFB1146FFF7EEFF00F0D5FB00F0CAFBA6
:1002100003B4FFF7F2FF03BC03F09EFD002804D0F7
:1002200090FAA0F0B0FA80F0401C7047EFF3108015
:1002300072B6704780F310887047344A1368012BF8
:1002400004D04FF001031360314A1060314A11604D
:1002500031484FF0805101607047EFF3108272B661
:100260002A48016891B14FF00001016028480168F7
:1002700029B1EFF3098121E9F00F006801602549F8
:1002800009680968B1E8F00F81F3098882F31088E2
:100290004EF0040E70471F4908601D494FF00000E2
:1002A00008601A494FF0010008601C481C49D0F84A
:1002B000002041EA0201016017484FF080510160BF
:1002C00018480068006880F3088861B662B6BFF31A
:1002D0004F8FBFF36F8F70471EF0040F0CBFEFF30B
:1002E0000880EFF3098020E9F00F40F804ED1EF0DC
:1002F000040F0CBF80F3088880F3098800B50AF06A
:10030000A9F95DF804EB4EF0040E704708000020D8
:10031000000000200400002004ED00E020ED00E0DB
:100320000000FFFF08ED00E009488047094800474A
:10033000FEE7FEE7FEE7FEE7FEE7FEE7FEE7FEE795
:10034000FEE7FEE704480549054A064B70470000F2
:10035000CD24000831010008F8120020F818002010
:10036000F8140020F81400207047000010B500F0C9
:10037000B9F9001D10BD00BF49ED000010B54C10CB
:1003800084EA530404D54042C1F1000138BF491E3C
:100390001B4204D55242C3F1000338BF5B1E00F07C
:1003A000A9F914F0804F04D04042C1F1000138BFD8
:1003B000491E14F0004F04D05242C3F1000338BF6D
:1003C0005B1E10BD70B5064600F090F90468054646
:1003D00030460A22002100F004FA2C6070BD401E55
:1003E000CAB210F8011F8A4202D00029F9D10020B8
:1003F000704730B505460B462A4613F8014B12F8F4
:10040000010B08B1A042F8D01CB1002802D06D1C2D
:10041000F1E7284630BD40EA010310B59B070FD134
:10042000042A0DD310C808C9121F9C42F8D020BA64
:1004300019BA884201D9012010BD4FF0FF3010BD1C
:100440001AB1D30703D0521C07E0002010BD10F8EA
:10045000013B11F8014B1B1B07D110F8013B11F8B0
:10046000014B1B1B01D1921EF1D1184610BD40EA71
:100470000103024630B59B0710D14FF0013400E074
:1004800008C208C91D1B9D4315EAC41FF8D013F00C
:10049000FF0102F8011B0DD01B0AF8E711F8013B20
:1004A000002B02F8013B05D011F8013B002B02F8AC
:1004B000013BF3D130BD0022CBB210F8011B9942B1
:1004C00000D1421E0029F8D11046704710B5431CD8
:1004D00002E010F8011B71B18107FAD14FF001322F
:1004E00002C88C1A8C4314EAC211F9D0C01A0A0649
:1004F00003D0C01E10BDC01A10BD0A0401D0801E5A
:1005000010BD0902FCD0401E10BD40EA010370B5C9
:100510009B072ED14FF00136042A2AD308C810C9F0
:100520009D1B9D43121F15EAC61517D0D8B2E1B224
:10053000401A50EA056110D198B2A1B2401A50EAAF
:1005400005410AD123F07F4024F07F41401A50EA50
:10055000052102D1180EA0EB146070BDA342DBD0C0
:1005600018BA21BA884201D9012070BD4FF0FF307E
:1005700070BD0AB9002070BD10F8013B11F8014BA5
:1005800063B1A3420AD1521E08D010F8013B11F802
:10059000014B1BB1A34201D1521EEDD1181B70BDFE
:1005A000421E12F8013F002BFBD111F8013B002B3A
:1005B00002F8013BF9D170474FF0000200B5134635
:1005C00094469646203922BFA0E80C50A0E80C5073
:1005D000B1F12001BFF4F7AF090728BFA0E80C5024
:1005E00048BF0CC05DF804EB890028BF40F8042B1D
:1005F00008BF704748BF20F8022B11F0804F18BF8A
:1006000000F8012B704710B5044610F0030F08BF27
:1006100011F0030F40F015804FF0013E121FC0F2A1
:100620000E8051F8043BA3EB0E0C2CEA030C1CEAE1
:10063000CE1C08BF40F8043BF0D0A1F1040102F148
:100640000402521E08DB11F8013B002B00F8013BAD
:10065000F7D1114600F0FDF8204610BD4FF0013CE7
:1006600050F8042B51F8043B9A4221D1A2EB0C0321
:10067000934313EACC1317D150F8042B51F8043BE1
:100680009A4215D1A2EB0C03934313EACC130BD17E
:1006900050F8042B51F8043B9A4209D1A2EB0C0309
:1006A000934313EACC13DBD04FF00000704700BF38
:1006B000D01A01BAB1FA81F101F0180122FA01F061
:1006C000CB40C1F12001DBB2C0B2C01A2CFA01F359
:1006D000D11A914311EAC311E6D1704770477047B0
:1006E0007047000000487047B8120020004870476B
:1006F0009812002053EA020C00F069802DE9F04BBB
:100700004FF00006002B1FBFB3FA83F503FA05F480
:1007100024FA05F65E4012BF1643B2FA82F502FAD9
:1007200005F4C5F120051EBF22FA05FC44EA0C04BD
:10073000203556EA044C4FEA144418BF641C4FF0AD
:1007400000084FF00009904271EB030C39D30029E7
:1007500019BFB1FA81F701FA07F6B0FA80F700FA8B
:1007600007F6C7F120071EBF20FA07FC46EA0C0671
:100770002037B6FBF4FCA7EB0507103F07F01F0B73
:10078000CBF120060CFA0BFB2CFA06F644BFB3465D
:100790000026202FA4BF5E464FF0000B5BEA060C3C
:1007A00008BF4FF0010B19EB0B09ABFB027C48EBC8
:1007B0000608C01B06FB02CC0BFB03CC71EB0C0143
:1007C000C1E70B46024641464846BDE8F08B13B5EB
:1007D0004FF000004FF00001AFF30080BDE81C4077
:1007E00070472DE9F04791460F46804604460026A3
:1007F00014F8015B2DB1FFF7B9FD0068405DC0073B
:10080000F6D12B2D02D02D2D18D0641E4A46394624
:10081000204600F045F827B13968A14201D1C7F858
:1008200000804FF0020471050BD54042002803DD23
:10083000FFF75CFF0460A007BDE8F08746F4806620
:10084000E4E70028F8DAFFF751FF04606FF000409A
:10085000F2E74FF000020429C0F0128010F0030C00
:100860003FF4ACAECCF1040CBCF1020F18BF00F8A1
:10087000012BA8BF20F8022BA1EB0C01FFF79EBEB5
:100880005FEAC17C24BF00F8012B00F8012B48BFB0
:1008900000F8012B704700000048704798120020B4
:1008A0002DE9F05F824615468B4600270AF10104C8
:1008B000B9460078302801D09DB113E014F8010B3F
:1008C0000127782803D0582801D045B10AE00DB19E
:1008D000102D07D1002714F8010B102502E0082580
:1008E00000E00A250026B0460EE005FB080005FBE7
:1008F00006F101271FFA80F801EB1046B6F5803F9C
:1009000000D3B94614F8010B294600F03DF8002841
:10091000EBDABBF1000F05D00FB1641E00E05446C6
:10092000CBF80040B9F1000F06D0FFF7DFFE02213F
:100930000160C81EBDE8F09F48EA0640FAE7754628
:10094000FFF7AAFFAE4605006946534620F00700B0
:10095000854618B020B5FFF7F5FCBDE820404FF004
:1009600000064FF000074FF000084FF0000B21F099
:100970000701AC46ACE8C009ACE8C009ACE8C00966
:10098000ACE8C0098D4670473A2800D2303820F0D4
:100990002002412A01D3A2F13700884201D34FF04F
:1009A000FF30704710B50446AFF300802046BDE825
:1009B0001040FFF72DBC10B50DF0E5FB002010BD79
:1009C00030B590F840500124AC40C56B6C600468B1
:1009D00063604468102C04D10468A2600468E1607C
:1009E00003E00468A1600468E26030BD10B50AF05D
:1009F00099F9012000F0F8FA0AF0BCF910BD10B521
:100A00000AF090F94FF4806000F0EEFA4FF40060C5
:100A100000F0EAFA4FF4805000F0E6FA4FF400508C
:100A200000F0E2FA4FF4804000F0DEFA4FF40040AC
:100A300000F0DAFA0AF09EF910BD10B50AF072F96A
:100A4000022000F0D1FA0AF095F910BD10B50AF0B5
:100A500069F9042000F0C8FA0AF08CF910BD10B54D
:100A60000AF060F9082000F0BFFA0AF083F910BD1F
:100A700010B50AF057F9102000F0B6FA0AF07AF92A
:100A800010BD10B50AF04EF9202000F0ADFA40205C
:100A900000F0AAFA802000F0A7FA4FF4807000F06E
:100AA000A3FA4FF4007000F09FFA0AF063F910BD4A
:100AB0000146002291F82100022808D00420886312
:100AC00000BF002081F8200000BF012070470868A7
:100AD000006820F00E000B6818600868006820F0BD
:100AE00001000B68186091F8403001209840CB6BF2
:100AF0005860012081F8210000BF002081F820000B
:100B000000BF1046E2E7000070B50446002594F8E7
:100B10002100022803D00420A0630125C1E0206841
:100B2000006820F00E00216808602068006820F04E
:100B30000100216808605C492068884252D95A49FE
:100B400078392068884201D1012047E0564964394C
:100B50002068884201D1102040E053495039206874
:100B6000884201D1801539E04F493C3920688842DC
:100B700001D1801432E04C4928392068884202D1E2
:100B80004FF480302AE0484914392068884202D165
:100B90004FF4801022E044492068884201D140048B
:100BA0001CE042492068884201D1012016E03F49FB
:100BB00014312068884201D110200FE03B492831D0
:100BC0002068884201D1801508E038493C3120680E
:100BD000884201D1801401E04FF480303349091F6D
:100BE000086051E0304978392068884201D10120FD
:100BF00047E02D4964392068884201D1102040E047
:100C0000294950392068884201D1801539E02649A8
:100C10003C392068884201D1801432E022492839C9
:100C20002068884202D14FF480302AE01E491439EE
:100C30002068884202D14FF4801022E01A492068CF
:100C4000884201D140041CE018492068884201D143
:100C5000012016E0154914312068884201D1102086
:100C60000FE0124928312068884201D1801508E040
:100C70000E493C312068884201D1801401E04FF4D4
:100C80008030094980394860012084F8210000BF84
:100C9000002084F8200000BF606B10B12046616B1B
:100CA0008847284670BD00008000024008040240CA
:100CB000014609B9012070470868006820F001006A
:100CC0000A68106000200A6810600A6850600A68AC
:100CD00090600A68D060174A086890420BD2164AA2
:100CE0000868801A1422B0FBF2F0800008641248F1
:100CF0000838C8630AE00F4A0868801A1422B0FB5B
:100D0000F2F0800008640B480838C86391F840206E
:100D100001209040CA6B506000208862C86208635E
:100D20004863886381F8210000BF81F8200000BF7C
:100D300000BFC0E70804024008000240014600224C
:100D400009B9012070471E4B086898420BD21D4B11
:100D50000868C01A1423B0FBF3F080000864194837
:100D60000838C8630AE0164B0868C01A1423B0FBA1
:100D7000F3F08000086412480838C863022081F844
:100D800021000868026843F6F0708243D1E901034C
:100D90001843CB6818430B6918434B6918438B6998
:100DA0001843CB6918430243086802600020886337
:100DB000012081F82100002081F8200000BFC1E758
:100DC00008040240080002402DE9F04104460D46A7
:100DD00016461F464FF0000800BF94F82000012877
:100DE00002D10220BDE8F081012084F8200000BF7C
:100DF00094F8210001282CD1022084F82100002041
:100E0000A0632068006820F00100216808603B466C
:100E1000324629462046FFF7D3FDE06A30B120680C
:100E2000006840F00E00216808600BE02068006850
:100E300020F00400216808602068006840F00A0083
:100E4000216808602068006840F00100216808609F
:100E500006E000BF002084F8200000BF4FF0020829
:100E60004046BFE72DE9F04102460B4600208BE0EB
:100E70000127874007EA030100297DD0464F4FEA4A
:100E8000900C57F82C4087074FEA177C0F2707FA7A
:100E90000CF73C40414FBA4201D1002719E0404FC6
:100EA000BA4201D1012714E03E4FBA4201D10227D4
:100EB0000FE03D4FBA4201D103270AE03B4FBA424F
:100EC00001D1042705E03A4FBA4201D1052700E0DD
:100ED00006274FEA807C4FEA1C7C07FA0CF7A742F2
:100EE00030D187074FEA177C0F2707FA0CF42A4FF7
:100EF0004FEA900C57F82C70A743DFF89CC04FEADC
:100F000090084CF828702B4F3F688F43DFF8A4C03F
:100F1000CCF800700CF104073F688F430CF1040C0F
:100F2000CCF800700CF104073F688F430CF1040CFF
:100F3000CCF800700CF104073F688F430CF1040CEF
:100F4000CCF80070FF2901D8174600E0171D3D4678
:100F5000FF2901D8870002E0A0F10807BF003E4644
:100F60002F684FF00F0C0CFA06FC27EA0C074FF025
:100F7000040C0CFA06FC00E005E047EA0C072F60C1
:100F8000D7688F43D760401C23FA00F7002F7FF407
:100F90006FAFBDE8F081000008000140000801408B
:100FA000000C0140001001400014014000180140F5
:100FB000001C01400004014070B50546284603F0BE
:100FC0008BF80446074800EB0410806840B1054ADE
:100FD00002EB0412D068034A02EB041291688847BE
:100FE00000BF70BD1800002010B50446044800681A
:100FF000204020B1024804602046FFF7DDFF10BD0D
:10100000140401402DE9F847024600239C467BE189
:101010004FF0010808FA03F4D1F8008008EA040050
:10102000A0427DD1DFF8F4A2D1F80480A8EB0A0930
:10103000D0453AD014DCB8F1030F50D009DCB8F138
:10104000000F31D0B8F1010F1CD0B8F1020F49D117
:1010500020E0B8F1110F18D0B8F1120F42D11EE004
:10106000B9F5881F25D006DCB9F5803F20D0B9F549
:10107000801F37D11AE0B9F5001F18D0B9F5041F49
:1010800030D117E0D1F80CC02DE0D1F80C8008F178
:10109000040C28E0D1F80C8008F1080C23E0D1F80A
:1010A0000C8008F10C0C1EE000BF00BF00BF00BFA9
:1010B00000BF00BFD1F80880B8F1000F02D14FF097
:1010C000040C0BE0D1F80880B8F1010F03D14FF008
:1010D000080C146102E04FF0080C546103E04FF07B
:1010E000000C00E000BF00BFFF2801D8904601E0DF
:1010F00002F104084646FF2802D84FEA830803E0BD
:10110000A3F108084FEA88084746D6F800804FF058
:101110000F0909FA07F928EA09080CFA07F900E0AB
:101120007AE048EA0908C6F80080D1F8048008F09F
:101130008058B8F1805F6FD100BFDFF8E481D8F844
:10114000188048F00108DFF8D891C9F81880C8461F
:10115000D8F8188008F00108CDF8008000BF00BF63
:101160004FEAB9384FEA930958F829504FEA837883
:101170004FEA18794FF00F0808FA09F825EA080530
:10118000DFF8A081424502D14FF0000824E0DFF8EB
:101190009881424502D14FF001081DE0DFF88C81B3
:1011A000424502D14FF0020816E0DFF88481424543
:1011B00002D14FF003080FE0DFF87881424502D1F9
:1011C0004FF0040808E0DFF87081424502D14FF08B
:1011D000050801E04FF006084FEA83794FEA1979D4
:1011E00008FA09F848EA0505DFF850814FEA930943
:1011F00048F82950D1F8048008F48038B8F5803FC9
:101200000BD1DFF83C81D8F8008048EA0008DFF80D
:101210003091C9F800800AE075E0DFF82481D8F841
:10122000008028EA0008DFF81891C9F80080D1F89A
:10123000048008F40038B8F5003F0ED1DFF80081D3
:1012400008F10408D8F8008048EA0008DFF8F090B8
:1012500009F10409C9F800800DE0DFF8E48008F125
:101260000408D8F8008028EA0008DFF8D49009F1D3
:101270000409C9F80080D1F8048008F48018B8F592
:10128000801F0ED1DFF8B88008F10808D8F8008078
:1012900048EA0008DFF8A89009F10809C9F80080B9
:1012A0000DE0DFF89C8008F10808D8F8008028EAF3
:1012B0000008DFF88C9009F10809C9F80080D1F81E
:1012C000048008F40018B8F5001F0ED1DFF8708014
:1012D00008F10C08D8F8008048EA0008DFF86090B0
:1012E00009F10C09C9F800800DE0DFF8548008F11D
:1012F0000C08D8F8008028EA0008DFF8449009F1CB
:101300000C09C9F800805B1CD1F8008028FA03F8AA
:10131000B8F1000F7FF47CAEBDE8F8870000111033
:101320000010024000080140000C01400010014084
:101330000014014000180140001C01400800014059
:1013400000040140024693680B400BB1012000E00D
:10135000002070470AB1016101E00B04036170478E
:1013600000B54FF0E020006900F4803008B100F0D3
:1013700005F80148006800BD9C040020034800688F
:101380000349096808440149086070479C0400202B
:101390001400002010B50848006840F0100006490D
:1013A0000860032000F0AAF80F2000F007F800F012
:1013B0000BF8002010BD00000020024010B50446CC
:1013C00009F014FC002010BD08B500BF1148806969
:1013D00040F001000F4988610846806900F0010073
:1013E000009000BF00BF00BF0846C06940F08050B9
:1013F000C8610846C06900F08050009000BF00BF7F
:1014000000BF0549486820F0E06040F00070486087
:1014100000BF08BD001002400000014010B50146A9
:101420000846002817DB00F01F0301229A400B4BEF
:10143000440943F8242000BF00BF00BFBFF34F8F13
:1014400000BF00BF00BF00BF00BF00BFBFF36F8F72
:1014500000BF00BF00BF00BF10BD000080E100E082
:1014600001460846002809DB00F01F0301229A40CC
:1014700043099B0003F1E023C3F8002100BF70473C
:101480002DE9F05F80460D461646002701F0A2FACE
:10149000074639462A46334601F00700C0F1070ADD
:1014A000BAF1040F02D94FF0040A01E0C0F1070AB3
:1014B000D14600F1040ABAF1070F02D24FF0000A38
:1014C00001E0A0F1030AD4464FF0010A0AFA09FA32
:1014D000AAF1010A0AEA020A0AFA0CFA4FF0010B11
:1014E0000BFA0CFBABF1010B0BEA030B4AEA0B0402
:1014F0002146404601F076FABDE8F09F00BF00F0BB
:101500000702064B19684FF6FF031940044B0B43C3
:1015100043EA0221014B196000BF70470CED00E067
:101520000000FA05F8B5044600260025207800F0F2
:10153000010000286BD000274348C06900F08050AC
:1015400070B900BF4048C06940F080503E49C86152
:101550000846C06900F08050009000BF00BF01271E
:101560003A48006800F48070B0B93848006840F428
:10157000807036490860FFF7F3FE064606E0FFF785
:10158000EFFE801B642801D90320F8BD2F480068B6
:1015900000F480700028F2D02B48006A00F44075F7
:1015A0002DB3A08800F44070A84220D02648006ADD
:1015B00020F4407501202649086000200860224878
:1015C000056205F0010090B1FFF7CAFE064608E08B
:1015D000FFF7C6FE801B41F28831884201D9032003
:1015E000D3E71948006A00F002000028F0D016483E
:1015F000006A20F440706168084313490862012FB3
:1016000004D10846C06920F08050C86100BF20782E
:1016100000F00200022807D10B48406820F4404047
:10162000A168084308494860207800F0100010289D
:1016300007D10548406820F48000616908430249E9
:1016400048600020A1E70000001002400070004048
:101650004004424270B504460D460CB9012070BDED
:101660005A48006800F00700A8420ED257480068A8
:1016700020F007002843554908600846006800F03C
:101680000700A84201D00120E9E7207800F002001D
:1016900002281DD1207800F00400042805D14C4810
:1016A000406840F4E0604A494860207800F0080053
:1016B000082805D14648406840F4605044494860D5
:1016C0004348406820F0F000A16808434049486062
:1016D000207800F0010078B36068012806D13C480A
:1016E000006800F4003090B90120B8E76068022873
:1016F00006D13748006800F0007040B90120AEE71D
:101700003348006800F0020008B90120A7E730481C
:10171000406820F00300616808432D494860FFF7E6
:101720001FFE064609E0FFF71BFE801B41F28831D1
:10173000884202D9032092E707E02548406800F07C
:101740000C006168B0EB810FEDD12048006800F01B
:101750000700A8420ED91D48006820F00700284362
:101760001A4908600846006800F00700A84201D046
:10177000012074E7207800F00400042807D1144801
:10178000406820F4E060E16808431149486020782F
:1017900000F00800082808D10D48406820F4605087
:1017A000216940EAC1000A49486000F03FF8084951
:1017B0004968C1F30311074A515CC84006490860F3
:1017C00006480068FFF7FAFD002048E700200240C5
:1017D0000010024003FC000898040020A004002030
:1017E00001480068704700009804002000B5FFF72A
:1017F000F7FF04494968C1F30221034A515CC8401C
:1018000000BD00000010024013FC000800B5FFF707
:10181000E7FF04494968C1F3C221034A515CC8404B
:1018200000BD00000010024013FC0008F0B585B0B8
:101830000FF26C0C9CE8E01001A8A0E8E0101CA5D9
:101840002D68009500210022002300240020194D5E
:10185000696801F00C05F5B1042D02D0082D19D1ED
:1018600001E0154819E001ADC1F38346AC5D01F418
:10187000803555B10F4D6D68C5F340451DF8052005
:101880000D4D6543B5FBF2F302E00C4D04FB05F38F
:10189000184602E000BF084800BF00BF05B0F0BD19
:1018A00002030405060708090A0B0C0D0E0F1010A1
:1018B000010200000010024000127A0000093D0001
:1018C000F8B504460CB90120F8BD207800F00100FD
:1018D000002878D0F848406800F00C0004280CD0AC
:1018E000F548406800F00C00082811D1F248406823
:1018F00000F48030B0F5803F0AD1EF48006800F472
:10190000003000285FD0606800285CD10120DBE750
:1019100000BF6068B0F5803F06D1E748006840F43A
:101920008030E549086028E0606858B9E2480068FE
:1019300020F48030E04908600846006820F48020E8
:1019400008601AE06068B0F5A02F0BD1DA48006893
:1019500040F48020D84908600846006840F4803090
:1019600008600AE0D448006820F48030D24908605A
:101970000846006820F48020086000BF606888B1D5
:10198000FFF7EEFC054606E0FFF7EAFC401B642883
:1019900001D9032098E7C848006800F40030002807
:1019A000F2D010E0FFF7DCFC054606E0FFF7D8FCBC
:1019B000401B642801D9032086E7BF48006800F473
:1019C00000300028F2D1207800F00200022857D120
:1019D000B948406800F00C0050B1B748406800F0CA
:1019E0000C00082818D1B448406800F4803098B939
:1019F000B148006800F0020020B12069012801D040
:101A0000012061E7AC48006820F0F800616940EA15
:101A1000C100A949086033E02069E8B10120A74965
:101A20000860FFF79DFC054606E0FFF799FC401BA8
:101A3000022801D9032047E79F48006800F0020010
:101A40000028F2D09C48006820F0F800616940EA64
:101A5000C1009949086013E0002098490860FFF729
:101A60007FFC054606E0FFF77BFC401B022801D9FE
:101A7000032029E79048006800F002000028F2D116
:101A8000207800F0080008282DD1A069B8B1012005
:101A90008B490860FFF764FC054606E0FFF760FC31
:101AA000401B022801D903200EE78348406A00F05A
:101AB00002000028F2D0012000F092FC13E0002088
:101AC0007F490860FFF74CFC054606E0FFF748FC3D
:101AD000401B022801D90320F6E67748406A00F04F
:101AE00002000028F2D1207800F00400042873D10D
:101AF00000277148C06900F0805070B900BF6E487F
:101B0000C06940F080506C49C8610846C06900F067
:101B10008050009000BF00BF01276A48006800F4B1
:101B20008070B0B96748006840F48070654908600B
:101B3000FFF716FC054606E0FFF712FC401B642881
:101B400001D90320C0E65F48006800F480700028D7
:101B5000F2D000BFE068012806D15748006A40F083
:101B600001005549086227E0E06858B95248006A08
:101B700020F00100504908620846006A20F0040085
:101B8000086219E0E06805280BD14B48006A40F074
:101B90000400494908620846006A40F001000862F2
:101BA0000AE04548006A20F00100434908620846FF
:101BB000006A20F00400086200BFE068A0B1FFF7EF
:101BC000CFFB054609E0FFF7CBFB401B41F2883114
:101BD000884202D9032077E622E03748006A00F005
:101BE00002000028EFD012E0FFF7BAFB054608E03C
:101BF000FFF7B6FB401B41F28831884201D9032030
:101C000062E62D48006A00F002000028F0D1012FA2
:101C100005D12948C06920F080502749C86100BF1C
:101C2000E069C8B32448406800F00C00082860D080
:101C3000E069022848D1002020490866FFF790FBA0
:101C4000054606E0FFF78CFB401B022801D9032064
:101C50003AE61948006800F000700028F2D1206AC6
:101C6000B0F5803F07D11448406820F40030A168E7
:101C7000084311494860D4E9080108430E494968FE
:101C800021F4741108430C49486001200B4908668F
:101C9000FFF766FB054607E03DE0FFF761FB401BF1
:101CA000022801D903200FE60348006800F0007005
:101CB0000028F2D02FE00000001002400000424255
:101CC0008004424200700040002014490866FFF77B
:101CD00047FB054606E0FFF743FB401B022801D9FE
:101CE0000320F1E50E48006800F000700028F2D1F2
:101CF00011E0E069012800D1E6E50948466806F4EC
:101D00008031206A814204D106F47011606A8142F8
:101D100001D00120D8E50020D6E5000000004242B5
:101D20000010024070B504462546681EB0F1807F61
:101D300001D301200FE0681E4FF0E02148610F2120
:101D40004FF0FF3000F04EFE00204FF0E0218861A0
:101D500007200861002070BD704710B504460CB91B
:101D6000012010BD242084F83D002068C06820F4C4
:101D700000502168C860204600F084F900202064EB
:101D800084F83D0084F83E00206300BF84F83C00E6
:101D900000BF00BFE5E7000070B504462CB94FF462
:101DA0008762034903A007F0D7F9254670BD0000FC
:101DB000F6F40008687561727420213D204E554C80
:101DC0004C0000002DE9F84F0446206805682068A3
:101DD000C668206847694FF00009CA4605F00F0938
:101DE000B9F1000F0AD105F0200038B106F020004B
:101DF00020B1204600F038FCBDE8F88FB9F1000FA3
:101E000071D007F0010018B906F4907000286AD06C
:101E100005F0010030B106F4807018B1206C40F07C
:101E20000100206405F0040030B107F0010018B192
:101E3000206C40F00200206405F0020030B107F091
:101E4000010018B1206C40F00400206405F0080087
:101E500048B106F0200010B907F0010018B1206C5D
:101E600040F008002064206C68B305F0200028B121
:101E700006F0200010B1204600F0F6FB2068406913
:101E8000C0F3801A206C00F0080010B9BAF1000FFE
:101E900022D0204600F0B3FB2068406900F04000EB
:101EA000B0B12068406920F0400021684861A06B13
:101EB00050B15648A16B4863A06BFEF725FE10B1E8
:101EC000A06B416B88470CE02046FFF765FF08E0F8
:101ED0002046FFF761FF04E02046FFF75DFF00208A
:101EE000206489E7FFE7206B012878D105F0100016
:101EF000002874D006F01000002870D000BF002029
:101F0000009020680068009020684068009000BF42
:101F100000BF2068406900F04000C0B3A06B0068BB
:101F200040681FFA80F8B8F1000F2FD0A08D40450F
:101F30002CDDA4F82E80A06B806920281FD020689B
:101F4000C06820F480702168C8602068406920F073
:101F50000100216848612068406920F04000216844
:101F60004861202084F83E00002020632068C0687B
:101F700020F010002168C860A06BFEF799FDA08DCD
:101F8000E28D801A81B22046FFF7E6FE34E7FFE7D4
:101F9000A08DE18D401A1FFA80F8E08DE8B1B8F10C
:101FA000000F1AD02068C06820F490702168C860C3
:101FB0002068406920F0010021684861202084F8F1
:101FC0003E00002020632068C06820F010002168D7
:101FD000C86041462046FFF7BFFE0DE7FFE705F06A
:101FE000800030B106F0800018B1204600F078FC87
:101FF00002E705F0400030B106F0400018B120467D
:1020000000F018FBF8E600BFF6E60000CF24000859
:1020100010B504460CB9012010BDA06900B100E064
:1020200000BF94F83D0028B9002084F83C00204609
:1020300000F066F8242084F83D002068C06820F491
:1020400000502168C860204600F080FB20680069CD
:1020500020F49040216808612068406920F02A003F
:10206000216848612068C06840F400502168C86059
:1020700000202064202084F83D0084F83E000020E9
:10208000CAE7000010B504461749206888420BD102
:102090001648806920F48040144988614FF4C0617B
:1020A0001348FEF7DFFE1DE01249206888420AD17E
:1020B0000E48C06920F400300C49C8610C210C485E
:1020C000FEF7D0FE0EE00C49206888420AD107488E
:1020D000C06920F480200549C8614FF44061074879
:1020E000FEF7C0FE10BD00000038014000100240A5
:1020F000000801400044004000480040000C01403E
:1021000010B586B00446002002900390049005901C
:102110004D49206888422FD100BF4C48806940F467
:1021200080404A4988610846806900F480400190F7
:1021300000BF00BF00BF0846806940F0040088610E
:102140000846806900F00400019000BF00BF4815F8
:102150000290022003900320059002A93C48FEF75C
:1021600051FF4FF48060029000200390049002A978
:102170003748FEF747FF65E03649206888422ED190
:1021800000BF3248C06940F400303049C861084699
:10219000C06900F40030019000BF00BF00BF0846D6
:1021A000806940F0040088610846806900F00400FE
:1021B000019000BF00BF0420029002200390032082
:1021C000059002A92248FEF71DFF0820029000207A
:1021D0000390049002A91E48FEF714FF32E01E4946
:1021E000206888422ED100BF1848C06940F4802082
:1021F0001649C8610846C06900F48020019000BFFC
:1022000000BF00BF0846806940F0080088610846AA
:10221000806900F00800019000BF00BF081502901F
:10222000022003900320059002A90C48FEF7EAFE65
:102230004FF40060029000200390049002A9074828
:10224000FEF7E0FE06B010BD00380140001002406D
:10225000000801400044004000480040000C0140DC
:1022600070B504460D46164694F83E00202816D157
:1022700005B10EB9012070BD00BF94F83C000128E3
:1022800001D10220F7E7012084F83C0000BF0020C4
:10229000206332462946204600F0D6FAEBE70220BA
:1022A000E9E7000070B504462CB94FF4896205498E
:1022B00005A006F051FF2546022105F1DC0004F0DF
:1022C000B9F870BD0DF50008687561727420213D84
:1022D000204E554C4C00000070B504462CB940F21D
:1022E0005742054905A006F037FF2546012105F1B3
:1022F000DC0004F09FF870BD25F500086875617278
:102300007420213D204E554C4C000000F7B504468A
:10231000154694F83D0020283DD1019800B10DB933
:102320000120FEBD00BF94F83C00012801D102202D
:10233000F7E7012084F83C0000BF01982062A584E3
:10234000E58400202064212084F83D001348616B5F
:1023500088621348616BC8621248616B0863002091
:10236000616B486301AE23681A1D31682B46606BB0
:10237000FEF72AFD6FF040002168086000BF0020D2
:1023800084F83C0000BF2068406940F0800021686C
:1023900048610020C5E70220C3E70000BB25000814
:1023A000F1250008E324000870B504462CB940F27A
:1023B0007942054905A006F0CFFE254605F1DC006F
:1023C00000F056FB70BD000052F5000868756172A0
:1023D0007420213D204E554C4C00000070470000F9
:1023E00008B508490968C9084FF47A72B1FBF2F1DF
:1023F0004143009100BF00BF00994A1E009200298E
:10240000F9D108BD9804002010B508F08BFC4FF0FE
:10241000E020006900F4803008B1FEF7AFFF0BF058
:10242000ADF908F0A7FC10BD00B595B028210BA8A8
:10243000FEF7C2F8142106A8FEF7BEF81821684678
:10244000FEF7BAF801200B9000040C9000200D90CC
:1024500001200F9002201290C10313914FF4E0115C
:1024600014910BA8FFF72CFA18B11F2113A000F04C
:102470007FFA0F20069002200790002008904FF46A
:102480008060099000200A90022106A8FFF7E2F878
:1024900018B12C2109A000F06BFA122000904FF423
:1024A00000400290002005906846FFF73BF818B105
:1024B000332102A000F05CFA15B000BD626F6172BA
:1024C000645C626F6172642E63000000704770B5D7
:1024D00005466C6A0020E085E0842046FFF75CFC3E
:1024E00070BD70B506460025746A20684069C0F367
:1024F000C01594F83D00212805D125B10020E084C5
:10250000204600F0A7F820684069C0F3801594F8D1
:102510003E00222805D125B10020E085204600F0AC
:102520006EF8206C40F0100020642046FFF734FC69
:1025300070BD70B505466C6A2868006800F0200020
:10254000F8B90020E0852068C06820F48070216818
:10255000C8602068406920F0010021684861206857
:10256000406920F0400021684861202084F83E0046
:10257000206B012805D12068C06820F01000216878
:10258000C860206B012804D1A18D2046FFF7E4FB31
:1025900002E02046FFF786FE70BD70B505466C6A06
:1025A000206B012805D1A08D41082046FFF7D4FB00
:1025B00002E02046FFF790FE70BD70B505466C6ADC
:1025C0002868006800F0200070B90020E0842068CE
:1025D000406920F08000216848612068C06840F0B0
:1025E00040002168C86002E02046FFF7DDFE70BDB4
:1025F00070B50446656A2846FFF7F0FE70BD0168B5
:10260000C96821F490710268D1600168496921F0BC
:10261000010102685161016B012905D10168C96896
:1026200021F010010268D160202180F83E100021C5
:102630000163704710B504462068C06820F0400070
:102640002168C860202084F83D002046FFF7ACFEDA
:10265000002010BD0168C96821F0C0010268D16086
:10266000202180F83D107047F8B5044694F83E00EC
:10267000222869D1A068B0F5805F0CD1206950B9DB
:102680000025A66A20684068C0F308003080A06A70
:10269000801CA06215E0A56A0026A068B0F5805FE6
:1026A00003D0A06828B9206918B92068406828704C
:1026B00004E02068406800F07F002870A06A401C99
:1026C000A062E08D401E80B2E085A8BB2068C06893
:1026D00020F020002168C8602068C06820F4807065
:1026E0002168C8602068406920F0010021684861C5
:1026F000202084F83E00206B01281ED1002020639A
:102700002068C06820F010002168C8602068006858
:1027100000F0100010280AD100BF002000902068AF
:102720000068009020684068009000BF00BFA18D45
:102730002046FFF711FB03E004E02046FFF7B2FD5F
:102740000020F8BD0020FCE70220FAE770B504463F
:102750002168096921F44051E2681143226811613E
:102760002269A1681143626941EA02052168C968CA
:1027700041F20C62914329432268D1602168496982
:1027800021F44071A2691143226851612D4A2168E8
:10279000914202D1FFF73AF801E0FFF727F800EB8A
:1027A000C00101EB001162689200B1FBF2F100EB95
:1027B000C00202EB001263689B00B2FBF3F26423D9
:1027C000B2FBF3F202EBC20303EB0212A1EB8201B4
:1027D000322202EB01116422B1FBF2F101F0F001AF
:1027E00000EBC00202EB001263689B00B2FBF3F245
:1027F0006423B2FBF3F201EB021200EBC00101EB28
:10280000001163689B00B1FBF3F100EBC00303EB25
:1028100000136668B600B3FBF6F36426B3FBF6F369
:1028200003EBC30606EB0313A1EB8301322303EB97
:1028300001116423B1FBF3F101F00F01114422688F
:10284000916070BD0038014077B581B004461546EF
:102850000298A062A58500202064222084F83E0012
:102860001C48A16B88621C48A16BC8621B48A16B05
:1028700008630020A16B486302AE32682368191D0B
:102880002B46A06BFEF7A0FA00BF00200090206846
:102890000068009020684068009000BF00BF00BF43
:1028A000002084F83C0000BF2068C06840F48070BD
:1028B0002168C8602068406940F0010021684861D3
:1028C0002068406940F0400021684861002004B061
:1028D00070BD0000332500089B250008E324000894
:1028E000014691F83D00212828D18868B0F5805F25
:1028F0000BD1086948B90A6A1088C0F308000B6850
:102900005860086A801C086205E00B6A581C08625F
:1029100018780B685860C88C401E80B2C88458B9BB
:102920000868C06820F080000B68D8600868C0683C
:1029300040F040000B68D860002070470220FCE7A0
:1029400010B508F0EFF903480CF050FA08F012FA4D
:1029500010BD0000C805002010B508F0E3F90348D9
:102960000CF044FA08F006FA10BD00000007002041
:1029700004460D4600BF07A008F016FA2A46214675
:102980000AA008F011FA11A008F00EFA00BF00BF6B
:10299000FEE700001B5B33316D5B452F6472765F91
:1029A000636F6D6D6F6E5D20000000004572726F89
:1029B000725F48616E646C65722061742066696C38
:1029C000653A2573206E756D3A2564001B5B306D8A
:1029D0000A00000002480068C0F3022070470000AF
:1029E0000CED00E010B5002804DB0A07130E054AC1
:1029F000135406E00A07140E034A00F00F031B1FCE
:102A0000D45410BD00E400E018ED00E070B50546B8
:102A10000AF08AFC04468CB100BF09A008F0C4F992
:102A20002A4621460BA008F0BFF90FA008F0BCF918
:102A300000BF0022012120460AF0F2F970BD00001B
:102A40001B5B33336D5B572F7374646C69625D205D
:102A5000000000007468726561643A25732065782F
:102A600069743A25642100001B5B306D0A00000088
:102A70002DE9F04104462CB940F262420A490BA00C
:102A800006F06AFBA4F1DC05FDF7D0FB0746D5F89C
:102A9000940046683846FDF7CDFB1EB90421204658
:102AA00007F048FFBDE8F08141F5000873657269E1
:102AB000616C20213D2052545F4E554C4C0000006B
:102AC00070B504462F212046FDF7F5FC051E01D107
:102AD000204670BD681C0546FBE7000010B50AF0F3
:102AE00023FC28B14FF0FF31024808F03FFC10BD35
:102AF0000020FCE7580E002010B504462CB140F22F
:102B00004962054905A006F027FB0AF00DFC10B14B
:102B1000064808F037FB10BD85F900086C6576653E
:102B20006C203D3D2052545F454F4B00580E002015
:102B300070B504462068A0F11405002028632846DB
:102B40000AF0A8FB002070BD2DE9F04705460C46B1
:102B50009046994694F8340000F00400042809D007
:102B6000494620460AF076FD064616B13046BDE8D5
:102B7000F08700BFB8F1000F03D0B8F1010F23D1E7
:102B800005E004F11401284608F061F922E02E68FE
:102B90000FE0A6F1140794F8350097F83510884235
:102BA00006DA04F1140107F1140008F050F902E00C
:102BB0003668AE42EDD100BFAE4204D104F114013B
:102BC000284608F044F905E0B622044904A006F0BE
:102BD000C3FA00BF00BF0020C9E7000024F70008C7
:102BE0003000000010B5044604F1140008F00AF9A2
:102BF000002010BD2DE9F0438BB0054689461746ED
:102C000000242DB94FF489721D491EA006F0A4FAC4
:102C10002FB940F213121A491BA006F09DFA00E0EA
:102C2000641C4C4505D2285D202802D0285D092867
:102C3000F6D124B96FF0FE000BB0BDE8F083214659
:102C4000284605F0CFFD064616B96FF0FE00F3E703
:102C50002822002101A808F003FA01AA49462846C3
:102C600005F040FF8046B8F1000F02D16FF0FE0082
:102C7000E2E701A94046B04738600020DCE70000E9
:102C800084F60008636D64007265747000000000D3
:102C900070B505460C46032D02DA00F0EBF870BD66
:102CA00016A06168FDF7DAFC20B92146284600F03D
:102CB00039F820E012A06168FDF7D0FC20B9214668
:102CC000284600F05FF816E00FA06168FDF7C6FC2B
:102CD00020B92146284600F08DF90CE00CA061686F
:102CE000FDF7BCFC20B92146284600F0D1F902E0EE
:102CF00000F0C0F8D3E700BFD1E700006E756D00AB
:102D00006D6F646500000000726561640000000082
:102D1000777269746500000010B50446204608F01B
:102D200021FD10BD70B506460C46032E02DA00F0F8
:102D3000A1F870BDA068FFF7EFFF0546002D06DA89
:102D400006A0A16808F030F800F094F8F1E72A46F0
:102D500009A0A16808F028F800BFEAE75061726195
:102D60006D6574657220696E76616C6964203A20C5
:102D70002573210A000000002573203A2025640AEB
:102D8000000000002DE9F04107460C46042F03DA4D
:102D900000F070F8BDE8F081A06805F0A3FD60B90F
:102DA000A068FFF7B9FF0646002E0ADA1BA0A1684B
:102DB00007F0FAFF00F05EF8ECE7A068FDF702FB11
:102DC00006461DA0E168FDF749FC08B900251EE094
:102DD0001BA0E168FDF742FC08B9012517E01AA025
:102DE000E168FDF73BFC08B9022510E01AA0E16894
:102DF000FDF734FC08B9032509E01BA0E168FDF7E5
:102E00002DFC08B9042502E000F034F8C2E7E9B26D
:102E1000304608F0CFFC00BFBCE700005061726193
:102E20006D6574657220696E76616C6964203A2004
:102E30002573210A000000006F757470757400001E
:102E4000696E707574000000696E7075745F7075DE
:102E50006C6C757000000000696E7075745F707541
:102E60006C6C646F776E00006F75747075745F6F53
:102E70006400000010B511A007F096FF14A007F041
:102E800093FF204807F090FF1FA007F08DFF2AA0B6
:102E900007F08AFF34A007F087FF3D4807F084FF62
:102EA0003CA007F081FF47A007F07EFF4DA007F090
:102EB0007BFF4FA008F056FC10BD000070696E202B
:102EC0005B6F7074696F6E5D204750494F0A000058
:102ED00020202020206E756D3A20202020202067A1
:102EE00065742070696E206E756D62657220667201
:102EF0006F6D2068617264776172652070696E0A17
:102F0000000000001CFC00082020202020202020A1
:102F100020202020202020652E672E204D53482081
:102F20003E70696E206D6F6465204750494F206F79
:102F300075747075740A000020202020207265616D
:102F4000643A2020202020726561642070696E2020
:102F50006C6576656C206F6620686172647761725B
:102F6000652070696E0A000020202020202020208B
:102F700020202020202020652E672E204D53482021
:102F80003E70696E2072656164204750494F0A00A7
:102F900070FC00082020202020202020202020203D
:102FA000202020652E672E204D5348203E70696EEC
:102FB000207772697465204750494F2068696768B7
:102FC0000A000000202020202068656C703A202034
:102FD000202020746869732068656C70206C6973A8
:102FE000740A00004750494F20652E672E3A0000B2
:102FF000200000002DE9F04106460C46032E03DABE
:10300000FFF738FFBDE8F081A06805F06BFC60B900
:10301000A068FFF781FE0546002D0ADA0DA0A16821
:1030200007F0C2FEFFF726FFECE7A068FDF7CAF93C
:103030000546284608F0E2FBC7B2012F04D1294615
:103040000BA007F0B1FE03E029460DA007F0ACFE8F
:1030500000BFD7E7506172616D6574657220696E5B
:1030600076616C6964203A202573210A0000000013
:1030700070696E5B25645D203D20686967680A00A1
:1030800070696E5B25645D203D206C6F770A0000DF
:103090002DE9F04107460C46042F03DAFFF7EAFE5C
:1030A000BDE8F081A06805F01DFC60B9A068FFF7DD
:1030B00033FE0546002D0ADA15A0A16807F074FE5C
:1030C000FFF7D8FEECE7A068FDF77CF9054617A0EE
:1030D000E168FDF7C3FA20B116A0E168FDF7BEFA7A
:1030E00008B901260EE014A0E168FDF7B7FA20B197
:1030F00012A0E168FDF7B2FA08B9002602E0FFF776
:10310000B9FECDE73146284608F09AFB00BFC7E775
:10311000506172616D6574657220696E76616C696B
:1031200064203A202573210A00000000686967685E
:10313000000000006F6E00006C6F77006F66660025
:103140002DE9F0410546884616462F4627B9372215
:10315000084909A006F000F834461CB96FF0FE00DB
:10316000BDE8F08122792168386C036828469847C9
:103170000020F5E77AF2000870696E20213D2052A8
:10318000545F4E554C4C00002DE9F04705468946EA
:1031900016461F46A846B8F1000F04D116220A4968
:1031A0000AA005F0D9FF34460CB1082F02D0002048
:1031B000BDE8F0872168D8F840008268284690472B
:1031C00020713846F4E7000065F2000870696E204F
:1031D000213D2052545F4E554C4C00002DE9F047E4
:1031E0000546894616461F46A846B8F1000F04D189
:1031F00026220A490AA005F0AFFF34460CB1082F79
:1032000002D00020BDE8F08722792168D8F840007C
:103210004368284698473846F4E700006FF20008F4
:1032200070696E20213D2052545F4E554C4C000079
:103230002DE9F74F82B00446904600BF07F00EFB21
:103240000746FCF7F3FF019006F09EF948B18F495D
:103250008FA007F0A9FD40F29F428C4997A005F08E
:103260007BFF012F09D1894995A007F09DFD40F210
:103270009F42864991A005F06FFF00BFFCF7D6FF83
:1032800081460AF051F848B9804997A007F08CFDB3
:1032900040F29F427D4989A005F05EFF00BFFCF728
:1032A000C5FF834607F058FD48B178499CA007F058
:1032B0007BFD40F29F42754980A005F04DFF5846C6
:1032C000FCF7B8FF00BF4846FCF7B4FF00BF019809
:1032D000FCF7B0FF00BF2CB940F2A2426B499AA0A4
:1032E00005F03AFF204608F0A9F9032805D040F27E
:1032F000A3426649994805F02FFF0AF015F80546E4
:10330000FCF794FF824600BF9548006818B120463C
:1033100093490968884700BF00202863206AA842B3
:103320000ED1A07FFF2803DAA07F401CA0779FE08A
:103330005046FCF77FFF6FF0220005B0BDE8F08F2C
:10334000206AC8B92562FF2060770120A077207F1E
:10335000FF280AD0207F216A91F83510884204DACC
:10336000217F4246206A00F0E9FD04F1240105F1C5
:103370003C0007F050FD7BE0039840B96FF074000B
:1033800028635046FCF756FF6FF07400D5E795F8B8
:103390003570627A4346294604F11400FFF7D4FBE6
:1033A000064626B15046FCF745FF3046C5E76C643B
:1033B000607FB8420BDD6777607F216A91F8351036
:1033C000884204DA02223946206A00F0B7FD0398E9
:1033D000002809DD03AA002105F158000AF068FA67
:1033E00005F158000AF0C2FB5046FCF723FF08F035
:1033F00061FAFCF71BFF8246286BA8B34FF0000967
:10340000206A40B1206A90F8350095F8351088425E
:1034100001D14FF0010904F1140007F037FD30B974
:103420006169A1F1140090F83510617701E0FF2087
:103430006077B9F1000F0DD0206A00F0AEFC0746AE
:10344000206A90F83500B84204D002223946206A3A
:1034500000F074FD5046FCF7EDFE002068642E6B12
:10346000002E02DD704268E701E0304665E700BFEC
:103470005046FCF7DFFE00BF3A48006818B120460E
:1034800038490968884700BF002056E7D5F700088B
:1034900046756E6374696F6E5B25735D3A20736366
:1034A000686564756C6572206973206E6F74206145
:1034B0007661696C61626C650A0000003000000092
:1034C00046756E6374696F6E5B25735D3A20696E35
:1034D00074657272757074206973206469736162B7
:1034E0006C65640A0000000046756E6374696F6E57
:1034F0005B25735D207368616C6C206E6F74206255
:10350000652075736564206265666F7265207363FC
:10351000686564756C65722073746172740A00006A
:1035200046756E6374696F6E5B25735D20736861A9
:103530006C6C206E6F742062652075736564206901
:103540006E204953520A00006D7574657820213D44
:103550002052545F4E554C4C00000000640001089E
:10356000480400204C0400202DE9F74F82B00446A7
:1035700017462CB940F2FD125C495DA005F0ECFD48
:10358000204608F05BF8022805D04FF4FF72574937
:103590005B4805F0E1FD00BF5A48006818B12046BD
:1035A00058490968884700BF00BFA08B002850D148
:1035B000039800284DD007F051F98046FCF736FEFD
:1035C000019005F0E1FF48B148494FA007F0ECFB3E
:1035D00040F20322454957A005F0BEFDB8F1010FA6
:1035E00009D1424954A007F0DFFB40F203223F49D2
:1035F00050A005F0B1FD00BFFCF718FE824609F0AF
:1036000093FE48B9394956A007F0CEFB40F2032299
:10361000364948A005F0A0FD00BFFCF707FE834631
:1036200007F09AFB48B131495BA007F0BDFB40F2BF
:1036300003222E493FA005F08FFD5846FCF7FAFD06
:1036400000BF5046FCF7F6FD00BF0198FCF7F2FD05
:1036500000BF00BFFCF7EAFD8146A08B002806DD15
:10366000A08B401EA0834846FCF7E4FD33E003989E
:1036700038B94846FCF7DEFD6FF0740005B0BDE8D0
:10368000F08F09F051FE05466FF00A002863627A58
:103690003B46294604F11400FFF756FA064626B1C8
:1036A0004846FCF7C7FD3046E8E70398002809DDE7
:1036B00003AA002105F158000AF0FAF805F15800B4
:1036C0000AF054FA4846FCF7B5FD08F0F3F8286B09
:1036D00008B1286BD2E700BF3948006818B120460E
:1036E00037490968884700BF0020C7E76CF7000822
:1036F00073656D20213D2052545F4E554C4C0000A7
:103700001C0001084804002046756E6374696F6EE2
:103710005B25735D3A207363686564756C65722020
:103720006973206E6F7420617661696C61626C658B
:103730000A0000003000000046756E6374696F6E09
:103740005B25735D3A20696E7465727275707420C2
:1037500069732064697361626C65640A000000002B
:1037600046756E6374696F6E5B25735D2073686167
:103770006C6C206E6F7420626520757365642062C6
:1037800065666F7265207363686564756C65722029
:1037900073746172740A000046756E6374696F6EAB
:1037A0005B25735D207368616C6C206E6F742062A2
:1037B00065207573656420696E204953520A0000C4
:1037C0004C04002070B5044606480068FCF726FD4E
:1037D000451E054850F83500A0F114062560304616
:1037E00070BD000054040020040F002070B5044692
:1037F00024B96222134914A005F0AEFCA06A007837
:10380000232809D1A16AE069884205D9D4E90A01CF
:103810000844E16988420AD2214610A007F0C4FAA0
:10382000FCF704FD054600BF002DFDD108E0A06AAD
:103830002030E169814203D821460FA007F0B4FA95
:1038400070BD00006BFA0008746872656164202125
:103850003D2052545F4E554C4C0000007468726518
:1038600061643A257320737461636B206F766572AF
:10387000666C6F770A0000007761726E696E673A56
:1038800020257320737461636B20697320636C6FF0
:10389000736520746F20656E64206F662073746199
:1038A000636B20616464726573732E0A000000000C
:1038B00010B50948006868B900BF08A007F074FA9D
:1038C0000A4807F071FA0AA007F06EFA00BF01205B
:1038D0000149086010BD0000100000201B5B33335D
:1038E0006D5B572F554152545D200000B4FC000819
:1038F0001B5B306D0A0000002DE9F04704460F46BF
:10390000904604B12FB94FF4FB72404940A005F036
:1039100023FCFCF78BFC8246A06CC0F38F200028B0
:103920002DD10026E56C2DB94FF40072374943A024
:1039300005F012FC2868012813D001202860206CB3
:10394000006928B940F20522304941A005F004FC85
:10395000206C012342463946D0F810C02046E0478B
:1039600001E06FF016065046FCF764FC16B94046BD
:10397000BDE8F087304608F0C5FC0020F8E7E56CAC
:103980000026204606F038FD81462DB940F215226A
:103990001E4939A005F0E0FBC84501DA464600E0C3
:1039A0004E46E8888119A06CC0F38F20814207D26F
:1039B000EA88286881183246384607F0CDFA1CE0BC
:1039C000A06CC0F38F20EB88C21A2868C118384653
:1039D00007F0C2FAEB8803EB060CA36CC3F38F234A
:1039E000ACEB0302A36CC3F38F233B44B5F806C0D2
:1039F000A3EB0C00296807F0AFFA3146204606F029
:103A000001FD5046FCF716FC3046B1E782F3000892
:103A10002873657269616C20213D2052545F4E55B8
:103A20004C4C2920262620286461746120213D20E9
:103A300052545F4E554C4C290000000072785F6470
:103A40006D6120213D2052545F4E554C4C000000CA
:103A500073657269616C2D3E6F70732D3E646D618C
:103A60005F7472616E736D697420213D2052545FE2
:103A70004E554C4C0000000072785F6669666F20FE
:103A8000213D2052545F4E554C4C00002DE9F0472B
:103A9000044688461646256D4FF0FF3332464146B0
:103AA000281D06F04DF80746CFB9FCF7BFFB81464D
:103AB000286801280DD0012028604846FCF7BAFB91
:103AC000206C022332464146D0F810C02046E04721
:103AD00002E04846FCF7AEFB3046BDE8F0873846CA
:103AE00008F010FC0020F8E770B50546EC6C2CB926
:103AF0004FF4C4720F4910A005F02EFBA088E18896
:103B0000884207D1A06808B9002070BDA86CC0F336
:103B10008F20FAE7A088E188884203DDA088E18849
:103B2000401AF2E7E088A188411AA86CC0F38F2000
:103B3000401AEAE72BF3000872785F6669666F2027
:103B4000213D2052545F4E554C4C00002DE9F0476A
:103B500006460F4615462EB940F225121E491FA0F3
:103B600005F0FAFAA846F46C2CB940F229121A4969
:103B70001FA005F0F1FA28E0FCF758FB8246E08828
:103B8000A188884205D1A06818B95046FCF752FBBD
:103B90001DE0E188206810F80190E088401CE0807A
:103BA000E188B06CC0F38F20814201DB0020E0800F
:103BB000A068012801D10020A0605046FCF73AFB24
:103BC00087F800907F1C6D1E00BF002DD4D100BF70
:103BD000A8EB0500BDE8F0870DF300087365726976
:103BE000616C20213D2052545F4E554C4C0000002A
:103BF00072785F6669666F20213D2052545F4E5592
:103C00004C4C00002DE9F04104460E4615462CB9F7
:103C100040F255121C491D4805F09EFAA846276D32
:103C20002FB940F25912184919A005F095FA24E06D
:103C300030780A2810D1207E00F0400060B1206C5E
:103C40000D21826820469047401C28B94FF0FF3173
:103C5000384605F025FB10E004E04FF0FF31384610
:103C600005F01EFB3178206C826820469047401C8E
:103C70000028F2D0761C6D1E00BF002DD8D1A8EB15
:103C80000500BDE8F08100001CF30008F03C0008CE
:103C9000747820213D2052545F4E554C4C0000005A
:103CA0002DE9F04106460F46144626B9EF220F498A
:103CB0000FA005F051FAA04611E0306CC168304603
:103CC00088470546681C00B90BE03D707F1C641EE8
:103CD000307E00F0400010B10A2D00D101E0002C30
:103CE000EBD100BFA8EB0400BDE8F081EDF20008C5
:103CF00073657269616C20213D2052545F4E554CB2
:103D00004C0000002DE9F04104460E4615462CB942
:103D10004FF483720E490F4805F01EFA2F4612E049
:103D200030780A2808D1207E00F0400020B1206CB5
:103D30000D218268204690473178206C82682046A9
:103D40009047761C6D1E002DEAD1781BBDE8F081EE
:103D5000FDF20008F03C000810B504462046FEF7CE
:103D600055FE00BFFEE770B509F0DEFA0446FCF729
:103D70005DFA0546204607F0A9FE04F1580009F057
:103D800033FE012084F83400204609F0FBF8284671
:103D9000FCF750FA07F08EFD70BD30B501460022E9
:103DA000002391F83640CA6B0DE0A2F12403587F3E
:103DB0001D7F854201DD054600E01D7F28468442C7
:103DC00000DD0446126801F13C008242EDD120463C
:103DD00030BD00002DE9FC5F04468B4616461F46A9
:103DE000DDE90C9ADDE90E5804F1140007F00DF836
:103DF00026626762C4F82890C4F82CA02321D4E975
:103E00000A0207F02DF9D4E90A3C63441A1F1D4B3E
:103E1000D4E9080106F0C4FEE061202D04DBC622CF
:103E200019491AA005F098F984F8365084F83550ED
:103E30000020A06304F13C0006F0E7FF00203034CE
:103E40006061A0612077C4F82080C4F824802060DD
:103E500020716065A065303C00902346144A2146DD
:103E6000019004F1580009F02FFE00BF11480068CE
:103E700018B120460F490968884700BF0020BDE8F7
:103E8000FC9F0000673D0008C6FA00087072696F69
:103E900072697479203C2052545F54485245414421
:103EA0005F5052494F524954595F4D4158000000EC
:103EB000B93E00087404002070B505462C4624B9AC
:103EC0008B22164916A005F047F994F8340000F04B
:103ED0000400042804D08C221049164805F03CF94F
:103EE000204607F0ABFB012804D08D220B49124875
:103EF00005F032F9FCF79AF906466FF0740020637A
:103F000004F1140006F0F7FF204607F07FFD30466D
:103F1000FCF790F907F0CEFC70BD0000B6FA00087F
:103F200074687265616420213D2052545F4E554C87
:103F30004C000000C80201080C0301082DE9F747F6
:103F400081B0054690466FF0FE09002602AA0221C4
:103F5000284608F065FF814641E06E6C002E3CD09B
:103F6000304607F06BFB032837D1FF200090344622
:103F700005F1140006F0ADFF627A4346294604F1CC
:103F80001400FEF7E1FD8146B9F1000F24D1274668
:103F900007F1140006F07AFF30B97869A0F1140A2D
:103FA0009AF83500787701E0FF20787700BF206A23
:103FB000FFF7F3FE0090206A90F835009DF800109E
:103FC000884207D0256A6A460221284608F028FF61
:103FD000814601E06FF0FE0901E06FF0FE09B9F1E2
:103FE000000F05D195F8340000F004000428B4D087
:103FF000BDE8FF872DE9F04704460E461746984670
:10400000DDF8209084F80990607A20F00100607259
:10401000E66127620020A062C4F82480002506E043
:1040200004F1140101EBC50006F0F2FE6D1C012D38
:10403000F6DBBDE8F0872DE9F04104460D46FCF7BC
:10404000F5F80746204606F029FF50B92068A0F190
:104050001406B06A28603846FCF7ECF80020BDE88A
:10406000F0813846FCF7E6F86FF0FE00F7E770B530
:104070000546002406E005F1140101EBC40006F03A
:1040800043FF641C012CF6DB70BD000008B51FE087
:1040900069461048FFF7CFFF40B109F045F90446E3
:1040A000022109F0D7FA07F005FC0FE009F060FBE8
:1040B00004460098001B6FF00041884205D200982A
:1040C000001B0090009808F06BFF00BF08F050FD47
:1040D000DEE70000840400200246002106E0012003
:1040E0008840904201D108467047491C2029F6DBE0
:1040F0004FF0FF30F8E710B501468323002203E0BC
:1041000011F8014B02FB034208780028F8D102F0B5
:104110007F0010BD10B520A006F046FE21480178B2
:1041200021A006F041FE1F48007800F0010010B108
:1041300023A006F039FE1B48007800F0020010B101
:1041400022A006F031FE1748007800F0040010B1FC
:1041500021A006F029FE1348007800F0080010B1F5
:1041600021A006F021FE0F48007800F0100010B1E9
:1041700020A006F019FE0B48007800F0800030B156
:1041800008480F3001681DA006F00EFE02E01FA0D7
:1041900006F00AFE10BD0000627573206661756C42
:1041A000743A0A0029ED00E05343425F43465352FC
:1041B0005F424653523A3078253032582000000092
:1041C0004942555345525220000000005052454389
:1041D0004953455252200000494D505245434953DE
:1041E0004552522000000000554E53544B45525248
:1041F0002000000053544B45525220005343422D9F
:104200003E424641523A253038580A000A00000022
:1042100070B59CB00546002416A802F097F900225C
:10422000294616A801F0FEF9002805DA294615A04E
:1042300006F0BAFD1CB070BD00BF5122002101A8DC
:1042400006F00EFF502201A916A801F0ADFA0446AF
:10425000002C0CDD002001A9085505F071F9064677
:10426000512301AA0021304606F06CF800BF002C53
:10427000E3DC08A006F098FD16A801F02BF900BFBA
:10428000D8E700004F70656E202573206661696C69
:1042900065640A000A00000070B505464DB901F0DA
:1042A000B9FC204920A006F07FFD01F097FF002017
:1042B00070BD2846FCF70AF9B0F5807F06D96FF08B
:1042C0001A0008F01FF84FF0FF30F1E729460020F0
:1042D00001F082FE044634B96FF01A0008F012F8BB
:1042E0004FF0FF30E4E701F095FC204604F0A8FC15
:1042F00006463EB9204606F059F901F06FFF4FF02F
:10430000FF30D5E7304600F03AF84FF4807221468E
:104310000448FCF778F9204606F048F901F05EFF02
:104320000020C5E74401002025730A0010B502A053
:1043300006F03AFD002010BD1B5B324A1B5B4800B3
:1043400070B50646304602F0F7F8054635B96FF00D
:104350000F0007F0D7FF4FF0FF3070BD284601F087
:10436000B9F80446304602F005F9002C05DA20467B
:1043700007F0C8FF4FF0FF30EFE70020EDE770B522
:104380000446206802F0D8F8064636B96FF00F00F0
:1043900007F0B8FF4FF0FF3070BD304601F09AF8DB
:1043A0000546206802F0E6F8204606F0FFF8002DEA
:1043B00005DA284607F0A6FF4FF0FF30ECE70020B3
:1043C000EAE7000070B505460E46012D07D109A0A9
:1043D00006F0EAFC0DA006F0E7FC002070BD012409
:1043E00004E056F82400FFF713FF641CAC42F8DB2E
:1043F0000020F3E755736167653A20636174205BC1
:1044000046494C455D2E2E2E0A000000436F6E6318
:104410006174656E6174652046494C452873290AAC
:104420000000000070B504460D46012C04D1084977
:1044300008A006F0B9FC09E0022C07D16868FFF774
:104440002BFF18B104A0696806F0AEFC002070BD17
:104450004401002025730A004E6F207375636820A5
:104460006469726563746F72793A2025730A00007B
:1044700070B505460C46032D06D006A006F094FC48
:104480000AA006F091FC03E0D4E9010100F08AFDE6
:10449000002070BD55736167653A20637020534FEB
:1044A0005552434520444553540A0000436F7079E8
:1044B00020534F5552434520746F20444553542E8A
:1044C0000A00000070B505460C46022D03D00BA073
:1044D00000F048FF10E00AA16068FCF7BFF820B1C7
:1044E00009A16068FCF7BAF818B908A006F05CFCEE
:1044F00002E0606800F036FF002070BD2F00000071
:104500002D2D68656C7000002D6800006466205BCE
:10451000706174685D0A00002DE9F04105460C46A3
:10452000022D04D113A0616806F03EFC1FE0032DAC
:104530001AD1002240F24241A06804F059FB06461D
:10454000002E0CDB6068FBF7C1FF07463A46304699
:1045500061680AF092FD3046FFF7F2FE03E006A024
:10456000A16806F021FC02E009A006F01DFC002075
:10457000BDE8F08125730A006F70656E2066696C76
:10458000653A2573206661696C6564210A00000044
:1045900055736167653A206563686F202273747292
:1045A000696E6722205B66696C656E616D655D0A88
:1045B000000000003EB504460D4600200290019028
:1045C00000906A4601A902A806F028FD09A00299F8
:1045D00006F0EAFB0BA0019906F0E6FB0DA000999E
:1045E00006F0E2FBDDE90120811A0EA006F0DCFBFB
:1045F00000203EBD746F74616C202020203A20257D
:10460000640A00007573656420202020203A20256C
:10461000640A00006D6178696D756D20203A20256F
:10462000640A0000617661696C61626C653A2025FC
:10463000640A000070B504460D46022C3AD1234AA4
:104640002946204603F0BEFF062823D006DC0628B4
:104650002CD2DFE800F02B0D1319161C08281CD0F3
:1046600009281DD00A2806D0B0F5807F1ED11AE097
:1046700003F0D0FA1BE003F0E5FB18E003F02AFAA0
:1046800015E002F093FD12E003F058F90FE002F09C
:1046900045FF0CE003F0ACF809E002F0EDFF06E0A6
:1046A00002F0EEFC03E002F027FE00E003E000BFB2
:1046B000002070BD00BF06A006F076FB0AA006F041
:1046C00073FB024804F0B8F90020F2E76002002012
:1046D00055736167653A206C697374205B6F707401
:1046E000696F6E735D0A00005B6F7074696F6E7343
:1046F0005D3A0A0070B504460D46012C03D104480A
:1047000003F076FC02E0686803F072FC002070BDE4
:104710004401002070B504460D46012C06D106A0C8
:1047200006F042FB0DA006F03FFB03E000216868A5
:1047300003F0C6FD002070BD55736167653A206DBA
:104740006B646972205B4F5054494F4E5D20444961
:10475000524543544F52590A0000000043726561AC
:10476000746520746865204449524543544F52593A
:104770002C206966207468657920646F206E6F74E0
:1047800020616C72656164792065786973742E0AA2
:10479000000000002DE9F04105460C46002612A756
:1047A000022D05D13846616801F050FA064613E043
:1047B000042D0BD10DA16068FBF750FF60B9A7680D
:1047C0003846E16801F042FA064605E008A006F026
:1047D000EBFA0020BDE8F0811EB131460CA006F0D6
:1047E000E3FA0020F6E70000656C6D002D74000010
:1047F00055736167653A206D6B6673205B2D74207D
:10480000747970655D206465766963650A000000EF
:104810006D6B6673206661696C65642C20726573CC
:10482000756C743D25640A002DE9F84306460C4674
:10483000012E19D132A006F0B7FA39A006F0B4FA69
:104840003F4D0AE045B1686830B1D5E90023A8685A
:1048500001683CA006F0A8FA10353948403085427E
:10486000F0D30020BDE8F883042E27D16568A7683F
:10487000D4F80C804FF000093B464246294636A04A
:1048800006F092FA3DA14046FBF7E8FE10B9D4F8D5
:10489000049000250023424639462846CDF8009072
:1048A00001F08AFA20B936A006F07EFA0020D9E796
:1048B00036A006F079FA4FF0FF30D3E7032E19D176
:1048C0006568A7682A46394633A006F06DFA0020CD
:1048D00003463A462946009001F06EFA20B928A016
:1048E00006F062FA0020BDE728A006F05DFA4FF05E
:1048F000FF30B7E72EA006F057FA4FF0FF30B1E7D0
:1049000066696C6573797374656D2020646576697A
:10491000636520206D6F756E74706F696E740A0028
:104920002D2D2D2D2D2D2D2D2D2D20202D2D2D2DD1
:104930002D2D20202D2D2D2D2D2D2D2D2D2D0A0011
:104940006C070020252D3130732020252D36732053
:1049500020252D730A0000006D6F756E742064654C
:104960007669636520257328257329206F6E746F1F
:10497000202573202E2E2E20000000006E6673006E
:1049800073756363656564210A0000006661696C84
:104990006564210A000000006D6F756E7420282583
:1049A0007329206F6E746F202573202E2E2E200009
:1049B00055736167653A206D6F756E74203C646550
:1049C000766963653E203C6D6F756E74706F696EBD
:1049D000743E203C6673747970653E2E0A000000B8
:1049E0002DE9F84380460C46B8F1030F06D02DA000
:1049F00006F0DAF931A006F0D7F950E000253DA025
:104A0000D4E9011206F0D0F900224FF48031A068F9
:104A100004F0EEF80746002F26DB3846FFF790FC3F
:104A20004FF4807006F07AFA054635B934A006F0E6
:104A3000BBF96FF00500BDE8F8836068FBF746FD41
:104A40006168461804E030782F2800D103E0761E14
:104A50006068B042F7D100BF00962DA2FF21284622
:104A6000A36808F071F80EE000221146A06804F077
:104A7000BFF80746002F05DB3846FFF761FCA0684A
:104A80000AF072FAA5682946606804F001FB2DB1AE
:104A9000A068A84202D0284605F088FD00BF00208B
:104AA000C9E7000055736167653A206D7620534F62
:104AB0005552434520444553540A000052656E61E7
:104AC0006D6520534F5552434520746F2044455324
:104AD000542C206F72206D6F766520534F555243D2
:104AE0004528732920746F204449524543544F523E
:104AF000592E0A002573203D3E2025730A00000030
:104B00006F7574206F66206D656D6F72790A000095
:104B100025732F257300000070B504460D4603F081
:104B200079F8002070BD000070B504460D460349B9
:104B300003A006F039F9002070BD000044010020F8
:104B400025730A002DE9F04790B007460C464FF058
:104B50000008C246C146012F09D13DA006F024F944
:104B600043A006F021F9002010B0BDE8F08760688E
:104B700000782D2825D100261DE06068805D2D2855
:104B80000FD0662804D0722805D076280AD105E017
:104B90004FF001080DE04FF0010A0AE04FF0010963
:104BA00007E006E06068815D39A006F0FDF80020AE
:104BB000DAE700BF761C6068805D0028DDD17F1ECB
:104BC000241D012540E054F82500694609F0BFFB8B
:104BD000002830D1BDF8060000F4804078B1BAF169
:104BE000000F05D154F825102FA006F0DDF82AE0BB
:104BF00054F825004A46414601F088FB23E0BDF801
:104C0000060000F40040F0B154F825000AF0ACF9B9
:104C100040B1B8F1000F16D154F825102BA006F0C2
:104C2000C3F810E0B9F1000F0DD054F825102CA0F6
:104C300006F0BAF807E0B8F1000F04D154F82510D7
:104C40002BA006F0B1F86D1CBD42BCDB00208BE749
:104C500055736167653A20726D206F7074696F6E6D
:104C60002873292046494C452E2E2E0A00000000AC
:104C700052656D6F76652028756E6C696E6B2920A4
:104C80007468652046494C452873292E0A000000A7
:104C90004572726F723A20426164206F7074696F5E
:104CA0006E3A2025630A000063616E6E6F74207295
:104CB000656D6F766520272573273A20497320613B
:104CC000206469726563746F72790A0063616E6E45
:104CD0006F742072656D6F766520272573270A0033
:104CE00072656D6F76656420272573270A000000C2
:104CF00063616E6E6F742072656D6F766520272517
:104D000073273A204E6F20737563682066696C655F
:104D1000206F72206469726563746F72790A000093
:104D20002DE9FC5F06460D4600200190009000240E
:104D30008346824680468146022E05DA47A006F069
:104D400033F8601EBDE8FC9F022E04D14FF00A0824
:104D5000686800901BE04BA16868FBF77FFC80B996
:104D6000A86800782B2804D0A868FBF72BFB8046A6
:104D700004E0A968481CFBF725FB8146E868009021
:104D800005E036A006F010F84FF0FF30DAE700211A
:104D9000009803F02DFF0746002F05DA3AA006F031
:104DA00003F84FF0FF30CDE706E004B9641C9DF82E
:104DB00004000A2800D1641C012201A9384604F02D
:104DC00003F90028F1DC214634A005F0EDFFB9F12C
:104DD000000F0FD04C4504D3A4EB090000F10108EB
:104DE00008E035A005F0E0FF3846FFF7A9FA4FF0DC
:104DF000FF30A7E7A04508D92FA005F0D5FF38461A
:104E0000FFF79EFA4FF0FF309CE7414639A005F0CE
:104E1000CBFFA4EB080B00221146384603F07EF9C5
:104E20000CE0DA4504D39DF804103AA005F0BCFF6D
:104E30009DF804000A2801D10AF1010A012201A902
:104E4000384604F0C1F80028EBDC33A005F0ACFFD5
:104E50003846FFF775FA002074E700005573616764
:104E6000653A207461696C205B2D6E206E756D62F1
:104E70006572735D203C66696C656E616D653E0AA6
:104E8000000000002D6E000046696C6520646F65AF
:104E9000736E27742065786973740A000A546F74FE
:104EA000616C204E756D626572206F66206C696E54
:104EB00065733A25640A00000A4572726F723A52AD
:104EC00065717569726564206C696E6573206172C5
:104ED00065206D6F7265207468616E20746F7461F7
:104EE0006C206E756D626572206F66206C696E65F0
:104EF000730A00005265717569726564204E756DA4
:104F0000626572206F66206C696E65733A25640A6B
:104F100000000000256300000A00000070B5044690
:104F20000D466E68022C05D00CA005F03DFF4FF039
:104F3000FF3070BD314611A005F036FF304601F05C
:104F400055F9002805DA11A005F02EFF4FF0FF30CB
:104F5000EFE711A005F028FF0020EAE7557361672D
:104F6000653A20756E6D6F756E74203C6D6F756E51
:104F700074706F696E743E2E0A000000756E6D6F5E
:104F8000756E74202573202E2E2E20006661696CAC
:104F90006564210A00000000737563636565642120
:104FA0000A0000002DE9F04190B006460F460024AB
:104FB0006946304600F07CFC002806DA31463FA006
:104FC00005F0F2FE10B0BDE8F081BDF8060000F477
:104FD0007040B0F5804F02D144F0010401E044F08C
:104FE00002046946384600F063FC002800DA0BE052
:104FF000BDF8060000F47040B0F5804F02D144F0D7
:10500000040401E044F0080404F0010030B104F0AD
:10501000080018B12FA005F0C7FED3E704F0020086
:10502000E8B104F00400A8B13046FDF749FD804620
:105030004146384600F0D0FF05461DB930A005F0C6
:10504000B3FEBFE72946304600F000F9284605F0D8
:10505000ADFA31E03946304600F0F8F82CE004F0C3
:105060000400C8B13046FDF72BFD80464146384666
:1050700000F0B2FF05461DB921A005F095FEA1E79D
:105080000021284603F01CF92946304600F040F87C
:10509000284605F08BFA0FE004F00C0040B900211F
:1050A000384603F00DF93946304600F031F803E098
:1050B0003946304600F02CF800BF83E7636F707903
:1050C000206661696C65642C206261642025730A26
:1050D000000000006370206661696C642C206370BE
:1050E0002064697220746F2066696C652069732082
:1050F0006E6F74207065726D6974746564210A0046
:105100006F7574206F66206D656D6F72790A00008F
:105110002DE9F041D8B005460E464FF480322946BD
:1051200001A800F07FFA002806DA294637A005F02A
:105130003BFE58B0BDE8F08100BF4FF48272002101
:1051400017A805F08DFF4FF4827217A901A800F08F
:10515000F9F90446002C4FDD4FF0000800272FA17D
:1051600018A8FBF77BFA20B12DA118A8FBF776FA57
:1051700000B942E018A9284600F02EFFB0F100085F
:1051800003D128A005F010FE39E018A9304600F040
:1051900023FF071E06D123A005F006FE404605F0BA
:1051A00005FA2CE04022002107A805F059FF07A9C5
:1051B000404600F07DFB20B118A91EA005F0F4FDCB
:1051C0001BE0BDF8220000F47040B0F5804F08D11C
:1051D0000021384603F074F839464046FFF798FF3F
:1051E00003E03946404600F031F8404605F0DEF96C
:1051F000384605F0DBF900BF00BF002C9DDC00BF86
:1052000001A800F067F900BF93E700006F70656EBA
:10521000202573206661696C65640A002E2E0000EB
:105220002E0000006F7574206F66206D656D6F72C3
:1052300079210A006F70656E2066696C653A2025D9
:1052400073206661696C65640A0000002DE9F04115
:105250008CB0064688464FF4805005F05FFE054648
:105260002DB92AA005F0A0FD0CB0BDE8F08168467C
:1052700001F06CF900223146684600F0D3F90028AD
:1052800007DA284605F092F9314624A005F08CFD96
:10529000EAE706A801F05AF940F24122414606A881
:1052A00000F0C0F900280ADA284605F07FF96846C0
:1052B00000F010F941461DA005F076FDD4E700BFCF
:1052C0004FF480522946684600F06EFA0446002CDE
:1052D0000DDD2246294606A800F0DEFB0746A74260
:1052E00004D0394616A005F05FFD02E000BF002C97
:1052F000E6DC00BF684600F0EDF806A800F0EAF82A
:10530000284605F053F900BFAEE700006F75742022
:105310006F66206D656D6F72790A00005265616479
:10532000202573206661696C65640A005772697490
:1053300065202573206661696C65640A00000000C1
:1053400057726974652066696C65206461746120B8
:105350006661696C65642C206572726E6F3D2564B0
:105360000A0000002DE9F04F89B082464FF0000B93
:10537000D946374A07CA02AB07C3BAF1000F01D0BA
:10538000514600E00021084605A900F0F3FE06465C
:105390009EB105F025F92D3018B92EA005F004FDB9
:1053A00006E005F01DF90746394633A005F0FCFC80
:1053B0004FF0FF3009B0BDE8F08F07990598A0FBCA
:1053C000017001464FF4806200233846FAF7D6FF99
:1053D00004460D464FF0000927E04FF48061611A42
:1053E00075F1000000DA23E04FF4806200232046CC
:1053F0002946FAF7C3FF0A210020A2FB017E03FB26
:1054000001E102FB00114FF4806203463846FAF7CF
:10541000B5FF83464FF48062002320462946FAF701
:10542000ADFF04460D4609F10109B9F1020FD4DBC5
:1054300000BF05990798CDE9000102A850F829306E
:105440005A46214613A005F0AFFC0020B2E7000049
:10545000B8F500085468652066756E6374696F6EF0
:10546000206973206E6F7420696D706C656D656E58
:105470007465642E0A00000073746174667320669C
:1054800061696C65643A206572726E6F3D25642EA9
:105490000A0000006469736B20667265653A202516
:1054A000642E2564202573205B20256420626C6FA8
:1054B000636B2C202564206279746573207065729B
:1054C00020626C6F636B205D0A000000004870472B
:1054D0004402002070B505460024002615B96FF07F
:1054E0000C0070BDA86801282AD100F02FFB2C69A0
:1054F000E068002804DC00F033FB6FF00C00F0E7FC
:10550000E069406820B1E06941682846884706465E
:10551000E068012812D104F1100005F0D1FC002050
:105520002861D4E90101884202D0A06805F03EF864
:10553000606805F03BF8204605F038F800F010FBF5
:105540003046CEE770B504460D46164614B96FF0E6
:10555000040070BD20690088022802D06FF00400AA
:10556000F7E72069C069C06938B12069C06932466F
:105570002946C36920469847EBE76FF02C00E8E71F
:105580002DE9F04104460025002600272146002091
:1055900000F022FD054600F0D9FA0021284600F06F
:1055A00075FE064606B1012700F0DAFA284604F037
:1055B000FDFF3846BDE8F08110B56FF0160405E038
:1055C0004FF0FF31074805F0D1FE044604F1170003
:1055D0000028F5D024B18C22034904A003F0BCFDBF
:1055E00010BD0000D8070020CDF5000830000000F5
:1055F00070B504460E4614B96FF0040070BD206902
:10560000C069806910B96FF02C00F7E72069C069A4
:1056100031468269204690470546002D00DBE56053
:105620002846EBE72DE9F84F0546894690460024C9
:1056300015B9601FBDE8F88F4946002000F0CCFC8A
:10564000074617B96FF00500F4E700F07FFA6946E6
:10565000384600F01BFE04465CB1E068401CE06088
:105660000020E8602C6100F07BFA384604F09EFFD1
:1056700060E0384600F028FA06463EB900F070FABD
:10568000384604F093FF6FF00800D3E72C21012087
:1056900003F09CFD04463CB900F062FA384604F081
:1056A00085FF6FF00500C5E70120E060A661B068E6
:1056B0008068E061002020802062B068007900F0FE
:1056C000010090B93946706800F06CFD20B935A032
:1056D00007F0D4FA606009E03946706800F062FDB6
:1056E000834607F0CBFA606000E06760A760E0697E
:1056F000006888B900F034FAD4E90101884202D088
:10570000A06804F053FF606804F050FF204604F0E6
:105710004DFF6FF02C008DE70020E8602C6104F154
:10572000100100980268516002680A6001604860D8
:1057300000BF00BFC5F80480E069016828468847BB
:10574000B0F1000A1BDAE068401EE060E06890B942
:1057500004F1100005F0B4FBD4E90101884202D045
:10576000A06804F023FF606804F020FF0020286197
:10577000204604F01BFF00F0F3F950465AE7686832
:1057800040F08070686008F4803030B102202969F0
:105790000880686840F00070686000F0E1F900205F
:1057A00048E700002F0000002DE9F04104460D46B7
:1057B0001646002714B9781FBDE8F0812069C0693A
:1057C000C06810B96FF02C00F6E72069C069324656
:1057D0002946C36820469847071E03DA606840F0F0
:1057E000806060603846E7E72DE9F84F0746894654
:1057F0004FF0000A0024A0460026002500BF00BF8D
:105800003946002000F0E8FB064616B96FF0080A9A
:1058100042E03046FFF7B4FE10B16FF0160A3BE0ED
:105820004946002000F0D8FB054615B96FF0080A7C
:1058300032E0304600F048F90446284600F044F9CA
:105840008046444525D1A068406A10B96FF02C0A03
:1058500021E0A068007900F0010038B1A0682A4674
:105860003146436A20469847824614E02946D8F8D4
:10587000040000F097FC83463146606800F092FC1B
:105880000090A0685A46436A20460099984782468D
:1058900001E06FF0180A00BF16B1304604F086FE32
:1058A00015B1284604F082FE5046BDE8F88F00008E
:1058B0002DE9F04706460F463146002000F08CFBEC
:1058C00005461DB94FF0FF30BDE8F087284600F0CF
:1058D000FBF8041E11D100BF25A005F065FA29468A
:1058E00027A005F061FA32A005F05EFA00BF284655
:1058F00004F05CFE6FF00800E6E7A068006A80B97B
:10590000284604F053FE00BF19A005F04DFA2AA066
:1059100005F04AFA26A005F047FA00BF6FF02C0008
:10592000D2E7A068007900F0010038B1A0683A46DB
:105930002946036A20469847814613E02946606855
:1059400000F030FC8046B8F1000F01D0404600E086
:1059500025A08046A0683A464146036A20469847FB
:10596000814600BF284604F021FE4846ACE700000F
:105970001B5B33316D5B452F4446535D20000000B7
:1059800063616E27742066696E64206D6F756E7436
:1059900065642066696C6573797374656D206F6EDC
:1059A000207468697320706174683A257300000080
:1059B0001B5B306D0A0000007468652066696C65C9
:1059C00073797374656D206469646E277420696DE2
:1059D000706C656D656E7420746869732066756E91
:1059E0006374696F6E0000002F0000002DE9F04124
:1059F00007463946002000F0EFFA06461EB96FF060
:105A00000400BDE8F0813046FFF7BAFD10B16FF039
:105A1000160531E0304600F057F8041E02D16FF051
:105A2000080529E0A068C06918B3A068007900F0F3
:105A30000100B8B93146606800F0B4FB30B9A06825
:105A400010A1C26920469047054614E031466068BF
:105A500000F0A8FB8046A0684146C26920469047F6
:105A6000054608E0A0683146C269204690470546D1
:105A700001E06FF02C0500BF304604F097FD28468A
:105A8000BFE700002F00000010B5024805F07AFBC8
:105A900010BD0000D807002070B504460D4616461C
:105AA00014B96FF0040070BD2069C069006910B9B5
:105AB0006FF02C00F7E72069C06932462946036978
:105AC00020469847EFE700002DE9F0410646002701
:105AD000B84626B95622194919A003F03DFB00F03B
